:020000040800F2
:1000000010040020413D00081F3B0008213B000870
:10001000233B0008253B0008273B000800000000A8
:10002000000000000000000000000000293B000864
:100030002B3B0008000000002D3B00082F3B000870
:100040006D3D0008713D0008753D0008793D0008D0
:100050007D3D0008813D0008853D0008893D000880
:100060008D3D0008913D0008953D0008373B000894
:10007000993D00089D3D0008A13D0008A53D0008F0
:10008000A93D0008AD3D0008B13D0008B53D0008A0
:10009000B93D0008BD3D0008C13D0008C53D000850
:1000A000C93D0008CD3D0008D13D0008D53D000800
:1000B000D93D0008DD3D0008E13D0008E53D0008B0
:1000C000E93D0008ED3D0008F13D0008F53D000860
:1000D000F93D0008FD3D0008013E0008053E00080E
:1000E000093E00080D3E0008113E0008153E0008BC
:1000F000193E00081D3E0008213E0008253E00086C
:10010000293E00082D3E0008313E0008353E00081B
:10011000393E00083D3E0008413E0008453E0008CB
:10012000493E00084D3E0008513E0008553E00087B
:10013000593E00085D3E0008613E0008653E00082B
:10014000473B0008693E00086D3E0008713E00080C
:10015000753E0008793E00087D3E0008813E00089B
:10016000853E0008893E00088D3E0008913E00084B
:10017000953E0008993E00089D3E000800000000E2
:10018000A13E0008A53E00082DE9F8430400002C1C
:1001900001D1012069E3DFF88409006810F00C0048
:1001A0000600DFF88409006810F0030007002078DB
:1001B000C00640F1DE80002E05D00C2E40F08A8073
:1001C000012F40F08780DFF850090068800704D5D0
:1001D000A069002801D1012047E3DFF83C0900684D
:1001E000000705D5DFF83009006810F0F00005E0E1
:1001F000DFF8D4090068000910F0F000216A884295
:1002000024D2206A00F092FC002801D001202CE3C7
:10021000DFF80409006850F00800DFF8FC180860F7
:10022000DFF8F408006830F0F000216A0843DFF8D6
:10023000E8180860DFF89409006830F47F40E1694D
:1002400050EA0120DFF88419086025E0DFF8C808CB
:10025000006850F00800DFF8C0180860DFF8B80840
:10026000006830F0F000216A0843DFF8AC1808603D
:10027000DFF85809006830F47F40E16950EA012056
:10028000DFF848190860002E06D1206A00F04EFC05
:10029000002801D00120E8E200F0C0FBDFF83019AF
:1002A000DFF878281268C2F30312895C11F01F018D
:1002B000C840DFF86C180860DFF86808006800F0D4
:1002C0009BFC80465FFA88F8B8F1000F51D0404699
:1002D000C0B2CAE2A069002834D0DFF83C08006848
:1002E00050F00100DFF83018086000F0B7FC05009E
:1002F000DFF824080068800706D400F0AFFC401B3C
:100300000328F5D30320B0E2DFF80C08006850F0B2
:100310000800DFF804180860DFF8FC07006830F018
:10032000F000216A0843DFF8F0170860DFF89C0846
:10033000006830F47F40E16950EA0120DFF88C1852
:10034000086016E0DFF8D007006840084000DFF8DA
:10035000C817086000F082FC0500DFF8BC070068E1
:10036000800706D500F07AFC401B0328F5D3032054
:100370007BE22078C00762D5082E03D00C2E0BD16B
:10038000032F09D1DFF890070068800357D5606814
:10039000002854D1012068E26068B0F5803F08D1A0
:1003A000DFF87407006850F48030DFF86C170860DD
:1003B00024E06068B0F5A02F10D1DFF85C0700687A
:1003C00050F48020DFF850170860DFF84C07006811
:1003D00050F48030DFF8401708600FE0DFF838078E
:1003E000006830F48030DFF830170860DFF8280745
:1003F000006830F48020DFF820170860606800286B
:100400000ED000F02BFC0500DFF80C07006880031D
:1004100015D400F023FC401B6528F5D3032024E20B
:1004200000F01CFC0500DFF8F0060068800306D52C
:1004300000F014FC401B6528F5D3032015E220785A
:10044000800758D5042E03D00C2E17D1022F15D1BA
:10045000DFF8C4060068400504D5E068002801D133
:10046000012002E2DFF86407006830F0F8502169EB
:1004700050EA0160DFF8541708603CE0E0680028AB
:1004800022D0DFF89406006850F48070DFF88816F8
:10049000086000F0E3FB0500DFF87C06006840051B
:1004A00006D400F0DBFB401B0328F5D30320DCE17E
:1004B000DFF81807006830F0F850216950EA016051
:1004C000DFF80817086016E0DFF84C06006830F423
:1004D0008070DFF84416086000F0C0FB0500DFF80C
:1004E00038060068400506D500F0B8FB401B03281D
:1004F000F5D30320B9E12078000730D560690028E2
:1005000016D0DFF8C406006850F00100DFF8B81616
:10051000086000F0A3FB0500DFF8AC060068800768
:100520001DD400F09BFB401B0328F5D303209CE166
:10053000DFF89406006840084000DFF88C16086079
:1005400000F08CFB0500DFF880060068800706D508
:1005500000F084FB401B0328F5D3032085E12078BD
:10056000400740F196805FF00009DFF868060068F8
:10057000C00010D4DFF85C06006850F08050DFF84F
:1005800054160860DFF84C06006810F080500090A8
:10059000009801208146DFF840060068C00516D4A7
:1005A000DFF83406006850F48070DFF82C1608601D
:1005B00000F054FB0500DFF820060068C00506D4F3
:1005C00000F04CFB401B0328F5D303204DE1A0684D
:1005D000012808D1DFF80406006850F00100DFF8B8
:1005E000FC15086023E0A068052810D1DFF8EC05B1
:1005F000006850F00400DFF8E4150860DFF8DC055F
:10060000006850F00100DFF8D41508600FE0DFF853
:10061000CC05006840084000DFF8C0150860DFF82E
:10062000BC05006830F00400DFF8B0150860A06871
:10063000002810D000F012FB0500DFF8A0050068CC
:10064000800719D400F00AFB401B41F2893188422F
:10065000F3D3032009E100F001FB0500DFF87C057E
:100660000068800708D500F0F9FA401B41F2893193
:100670008842F3D30320F8E05FFA89F9B9F1010F5A
:1006800007D1DFF85005006830F08050DFF84415DE
:100690000860A06A002800F0E780A06A022840F005
:1006A000BE80DFF884040068070017F00300E16AE9
:1006B000884228D117F07000216B491EB0EB011F52
:1006C00021D117F4FE40616BB0EB012F1BD1A06B61
:1006D000072801D1002000E0012017F400318142F9
:1006E00011D117F4C000E16B891E0905490D4905B8
:1006F000884208D117F0C060216C891E090611F0EC
:100700007E41884267D00C2E63D0DFF80C0400686D
:10071000400104D4DFF800040068C00001D50120C6
:10072000A3E0DFF8F403006830F08070DFF8E8132E
:10073000086000F093FA0500DFF8DC030068800130
:1007400006D500F08BFA401B0328F5D303208CE07C
:10075000DFF8D4030068DFF888140840E16A084332
:10076000216B491E50EA0110616B50EA0120E16BD8
:10077000891E0905490D49050843216C891E090692
:1007800011F07E410843A16B090950EA4140DFF8AE
:1007900098130860DFF88003006850F08070DFF87D
:1007A00078130860DFF88003006850F08070DFF88D
:1007B0007813086000F052FA0500DFF85C03006867
:1007C000800151D400F04AFA401B0328F5D30320DE
:1007D0004BE0012049E0DFF840030068800143D48A
:1007E000DFF83403006850F08070DFF82C130860E5
:1007F000DFF83403006850F08070DFF82C130860D5
:1008000000F02CFA0500DFF81003006880012BD4FB
:1008100000F024FA401B0328F5D3032025E00C2E1A
:1008200020D0DFF8F402006830F08070DFF8E812C2
:10083000086000F013FA0500DFF8DC0200688001B0
:1008400006D500F00BFA401B0328F5D303200CE07B
:10085000DFF8D4020068DFF88C130840DFF8C81214
:10086000086001E0012000E00020BDE8F283F8B557
:1008700004000D00002C01D10120CEE0DFF8680358
:10088000006810F00700A84211D2DFF85C0300688E
:10089000C008C0002843DFF850130860DFF84803A1
:1008A000006810F00700A84201D00120B5E02078D0
:1008B000800711D5DFF86402006810F0F000A1682D
:1008C000884209D2DFF85402006830F0F000A168D5
:1008D0000843DFF8481208602078C00743D56068F5
:1008E000032806D1DFF83002006880011CD4012003
:1008F00093E06068022806D1DFF81C0200688003DC
:1009000012D4012089E06068002806D1DFF80802CF
:100910000068800708D401207FE0DFF8FC01006850
:10092000400501D4012078E0DFF8F001006880087C
:10093000800061680843DFF8E411086000F08EF978
:100940000600DFF8D801006810F00C006168B0EB19
:10095000810F08D000F082F9801B41F28931884272
:10096000EFD3032059E02078800711D5A068DFF885
:10097000AC11096811F0F001884209D2DFF89C013E
:10098000006830F0F000A1680843DFF890110860BB
:10099000DFF85402006810F00700854211D2DFF83A
:1009A00048020068C008C0002843DFF83C12086015
:1009B000DFF83402006810F00700A84201D00120DF
:1009C0002BE02078400707D55448006830F4E060F9
:1009D000E1680843514908602078000708D54F486E
:1009E000006830F46050216950EAC1004B4908604A
:1009F00000F014F8DFF8D811484A1268C2F3031265
:100A0000895C11F01F01C8404549086045480068ED
:100A100000F0F2F807003800C0B2F2BDF0B40021D7
:100A20000020DFF8F8C0DCF800C01CF00C0C6646B3
:100A3000DFF8F4C0DCF800C01CF0030C6746002EA1
:100A400003D00C2E1FD1012F1DD1DFF8CCC0DCF854
:100A500000C05FEA0C7C07D4DFF86CC1DCF800C092
:100A6000CCF3032C614606E0DFF8ACC0DCF800C034
:100A7000CCF3031C6146DFF874C15CF82110002E32
:100A80000CD108000AE0042E03D1DFF864C16046EF
:100A900004E0082E02D1DFF85CC160460C2E38D18C
:100AA000DFF884C0DCF800C01CF0030C63469C46F1
:100AB000BCF1020F03D0BCF1030F04D007E0DFF854
:100AC00030C1624604E0DFF82CC1624600E00A0053
:100AD000DFF854C0DCF800C0CCF3021C1CF1010CA0
:100AE0006546DFF844C0DCF800C0CCF3062C0CFBF4
:100AF00002F2B2FBF5F2DFF830C0DCF800C0CCF354
:100B0000416C1CF1010C5FEA4C0C6446B2FBF4FC36
:100B10006046F0BC70470000001002400810024020
:100B200004000020000000200C10024070B582B0CC
:100B30000400002627480068C00003D500F094F8A0
:100B4000050014E02348006850F0805021490860F7
:100B50002048006810F080500090009800F084F861
:100B600005001C48006830F080501A490860B5F54F
:100B7000007F09D1812C15D3A12C02D302200600BD
:100B800010E0012006000DE0812C02D303200600B6
:100B900008E0802C02D10220060003E0702C01D175
:100BA0000120060010480068C008C00030430E490C
:100BB00008600D48006810F00700B04201D0012025
:100BC00000E0002076BD00009410024004100240B6
:100BD000303D000858100240007000409010024064
:100BE0008C809DF9FCFFEEFE00200240F43B0008E3
:100BF0000024F40000127A0038B5040000251448DF
:100C0000007800281ED04FF47A7011490978B0FBA3
:100C1000F1F010490968B1FBF0F000F004F9002888
:100C20000DD1102C08D2002221005FF0FF3000F01F
:100C3000E0F80948046007E00120050004E0012015
:100C4000050001E0012005002800C0B232BD00BF50
:100C50000E00002004000020000000200148006871
:100C6000704700BF64180020DFF89400006810F49B
:100C7000C06070470100B1F5007F2CD1DFF8800023
:100C8000006810F4C060B0F5007F36D0DFF8700067
:100C9000006830F4C06050F40070DFF86430186011
:100CA000DFF86000006832235843DFF85C30B0FBA7
:100CB000F3F0401C0200DFF854000068400503D543
:100CC000002A01D0521EF6E7DFF840000068400518
:100CD00013D5032012E0DFF82800006810F4C0608C
:100CE000B0F5806F09D0DFF81800006830F4C060FC
:100CF00050F48060DFF80830186000207047000072
:100D0000007000400400002040420F0014700040BA
:100D100010F00702474B1B6819004FF6FF031940FC
:100D2000454B53EA02231943424B1960704741482F
:100D30000068C0F30220704740B2002808D40121A7
:100D400010F01F0291403D4A40B2430942F823107F
:100D5000704710B440B2002804D40A01384B40B2A6
:100D60001A5407E00A01374B40B210F00F04234435
:100D700003F8042C10BC704770B4030013F0070490
:100D8000D4F10706052E01D3042001E0D4F10700B9
:100D9000261D072E01D2002500E0E51E012616FAC9
:100DA00000F0401E0840A8400121A940491E114002
:100DB000084370BC704710B50400601EB0F1807F1E
:100DC00001D301200EE0601E1F4908600F215FF073
:100DD000FF30FFF7BEFF00201C49086007201C49B8
:100DE0000860002010BD10B504002000FFF790FF40
:100DF00010BDF8B504000D0016000027FFF797FF9F
:100E00000700320029003800FFF7B6FF010020007C
:100E100040B2FFF79EFFF1BD10B50400200040B2C4
:100E2000FFF78AFF10BD10B504002000FFF7C3FFD5
:100E300010BD00000CED00E00000FA0500E100E04C
:100E400000E400E018ED00E014E000E018E000E04D
:100E500010E000E0826832F47C120A43826070473E
:100E6000826832F0E0720A4382607047806810F056
:100E7000E070704770B410F1600414EB81042568D1
:100E8000DFF81063354012F0F84635431D4355F046
:100E90000045256070BC7047020012F1600010EB45
:100EA0008100006810F0F840704710B410F1600342
:100EB00013EB81031C6824F0004414431C6010BC35
:100EC000704770B410F130038C0914F00C04E3186F
:100ED0001C681F2511F01F06B540AC43C2F38465A2
:100EE00011F01F06B5402C431C6070BC704770B4F5
:100EF00010F11403CC0D14F00404E3181C6807254A
:100F00000E0D16F01F06B540AC430D0D15F01F0574
:100F100012FA05F52C431C6070BC704730B4D0F851
:100F2000B0304C03640BA343DFF86C4212F0180599
:100F3000EC400C406403640B2343C0F8B03030BC79
:100F400070478168DFF854221140816070478068E3
:100F5000400F10F0010070478168DFF84422114013
:100F600051F08051816070478068000F10F00100DF
:100F700070478168DFF82822114051F0020181603A
:100F80007047806810F0010070478068400810F0DA
:100F9000010070478068800810F001007047806889
:100FA000C00810F0010070472DE9F8430400002547
:100FB00000200090002C01D10120E8E020690028E9
:100FC00002D094F820000128606D002807D120008D
:100FD00000F095FB0020A065002084F850002068F8
:100FE000FFF7B5FF002802D02068FFF7AAFF2068AE
:100FF000FFF7BAFF002813D12068FFF7ADFFDFF835
:10100000A4010068DFF8A011B0FBF1F0401C400023
:1010100000900098002803D00098401E0090F8E748
:101020002068FFF7A1FF002809D1606D50F0100083
:101030006065A06D50F00100A065012005002068EA
:10104000FFF7A8FF0700606DC00600F19880002F31
:1010500040F09580606D30F4807050F00200606563
:101060002068FFF78EFF002817D1DFF84001FFF757
:1010700088FF8146DFF83801FFF783FF50EA09094E
:10108000DFF83001FFF77DFF50EA0900002804D1A6
:101090006168DFF82401FFF7DDFE607E616B51EAD5
:1010A0004030E1680843A168084394F8201050EAF2
:1010B0000140060094F82000012803D1606A401E18
:1010C00056EA4046A06A002805D0A06A10F4707065
:1010D000E16A084306432068C068DFF8E010084072
:1010E00030432168C8602068FFF759FF804658EAFE
:1010F0000700002829D1207E94F83010490051EAD9
:10110000803006002068C068DFF8B4100840304323
:101110002168C86094F83800012810D1206800695F
:101120006FF38A00E16B0843216C0843616C08434C
:10113000A16C084350F001002168086105E02068B7
:10114000006940084000216808612069012809D130
:101150002068006B00090001E169491E084321680D
:10116000086305E02068006B00090001216808633E
:10117000606D30F0020050F00100606505E0606DC8
:1011800050F010006065012005002800C0B2BDE8E5
:10119000F283000000F0FF03FFFF0700C0FFFF5FC6
:1011A000C0FFFF7F04000020400D0300000004503A
:1011B00000010450000204500003045007C0F0FF77
:1011C000FDBFFFFF2DE9F84F04000D0000260020B1
:1011D0000090E868DFF804148842FFD194F85000CA
:1011E000012801D10220F2E1012084F8500020689A
:1011F000FFF7D0FE002840F0DF81D5F804B0686822
:10120000062818D26868022806D012D3042809D00C
:1012100005D3052809D00CE00C2083460BE01220F2
:10122000834608E01820834605E04FF4807083462B
:1012300001E0062083462A6859462068FFF741FEF0
:101240002068FFF7A7FE81462068FFF7A8FE8246C8
:101250005AEA0900002840F0B880AA682968206886
:10126000FFF745FE68692168C968C1F3C101C9B2C9
:101270004900884007002869042806D03B002A68F6
:1012800029692068FFF7F6FD9FE000212068FFF73D
:1012900003FE400306D100212068FFF7FDFDC0F3E7
:1012A000846007E000212068FFF7F6FD90FAA0F0C7
:1012B000B0FA80F02968490303D12968C1F3846139
:1012C00004E0296891FAA1F1B1FA81F1884204D1D0
:1012D000002200212068FFF7E8FD01212068FFF7C8
:1012E000DBFD400306D101212068FFF7D5FDC0F3E7
:1012F000846007E001212068FFF7CEFD90FAA0F09E
:10130000B0FA80F02968490303D12968C1F38461E8
:1013100004E0296891FAA1F1B1FA81F1884204D17F
:10132000002201212068FFF7C0FD02212068FFF79D
:10133000B3FD400306D102212068FFF7ADFDC0F3E5
:10134000846007E002212068FFF7A6FD90FAA0F074
:10135000B0FA80F02968490303D12968C1F3846198
:1013600004E0296891FAA1F1B1FA81F1884204D12F
:10137000002202212068FFF798FD03212068FFF773
:101380008BFD400306D103212068FFF785FDC0F3E4
:10139000846007E003212068FFF77EFD90FAA0F04B
:1013A000B0FA80F02968490303D12968C1F3846148
:1013B00004E0296891FAA1F1B1FA81F1884204D1DF
:1013C000002203212068FFF770FD2068FFF7D9FD98
:1013D000002840F09080EA6829682068FFF79EFDA9
:1013E000E868DFF8F811884240F0858028684003FB
:1013F00003D12868C0F3846004E0286890FAA0F064
:10140000B0FA80F0401C10F01F000A2836D228687D
:10141000400303D12868C0F3846004E0286890FA90
:10142000A0F0B0FA80F02968490303D12968C1F31C
:10143000846104E0296891FAA1F1B1FA81F12A6886
:10144000520303D12A68C2F3846204E02A6892FA44
:10145000A2F2B2FA82F2401C800610F0F84001239A
:10146000491C11F01F0113FA01F10843511C11F03E
:101470001F010322514350EA015138E0286840031C
:1014800003D12868C0F3846004E0286890FAA0F0D3
:10149000B0FA80F02968490303D12968C1F3846157
:1014A00004E0296891FAA1F1B1FA81F12A685203A6
:1014B00003D12A68C2F3846204E02A6892FAA2F295
:1014C000B2FA82F2401C800610F0F8400123491C59
:1014D00011F01F0113FA01F10843511C11F01F0113
:1014E0000A390322514350EA015050F00071AA68B2
:1014F0002068FFF7FCFC2868DFF8E410084261D0A0
:10150000DFF8D000FFF7B2FC80462868DFF8D4107F
:10151000884224D15FEA082021D42068DFF8B8107F
:10152000884204D02068DFF8C01088424AD158F4BD
:101530000001DFF8A000FFF793FCDFF8B0000068BF
:10154000DFF8AC10B0FBF1F0401C0C2148430090D8
:101550000098002836D00098401E0090F8E72868D0
:10156000DFF89010884213D15FEAC81010D42068C9
:10157000DFF86410884204D02068DFF86C108842DD
:1015800020D158F08071DFF84C00FFF769FC19E0BA
:101590002868DFF86410884214D15FEA482011D42B
:1015A0002068DFF8341088420CD158F48001DFF84D
:1015B0002400FFF755FC05E0606D50F020006065E9
:1015C00001200600002084F850003000C0B2BDE8C1
:1015D000F28F0000000304500000045000007F4020
:1015E00000000880000052C70002045004000020E0
:1015F000400D0300000084CB0100008070B50400A2
:101600002068FFF7C2FC06002068FFF7BAFC00283C
:1016100032D0002E30D12068806810F00D000128F3
:1016200009D12068FFF7A5FC032021680860FFF7B7
:1016300015FB050009E0606D50F010006065A06DBD
:1016400050F00100A065012017E020688068C00705
:1016500012D5FFF703FB401B0328F6D320688068F0
:10166000C007F2D5606D50F010006065A06D50F0BD
:101670000100A065012000E0002070BD70B50400ED
:101680000D0016002068806850F001002168886015
:1016900020680068C007FBD5142021680860206816
:1016A000C06850F001002168C86033002A0020683B
:1016B00010F14001E06C00F0ADF92068806850F056
:1016C00004002168886070BD81B08448006850F0D3
:1016D0000100824908608148006810F00100009014
:1016E00000987F48006850F080507D4908607C4831
:1016F000006810F080500090009801B0704710B55D
:10170000A8B0040001A8142100F062FA06A88821FC
:1017100000F05EFA20687349884242D14FF480405D
:1017200006905FF0805024900120079003200890DD
:101730000A20099007200A9002200B9002200C90AA
:101740005FF080700D9006A800F046FA002801D0E6
:1017500001F014FA6448006850F4005062490860CF
:101760006148006810F40050009000985E480068DE
:1017700050F001005C4908605B48006810F001000F
:1017800000900098012001900B200290002003900F
:1017900001A95FF0904001F0F3F95448E064534828
:1017A000846228B010BD10B586B0040001A81421D1
:1017B00000F00EFA20684E4988424AD14A48006833
:1017C00050F00400484908604748006810F00400E1
:1017D000009000984448006850F0020042490860B8
:1017E0004148006810F00200009000983E480068F0
:1017F00050F010003C4908603B48006810F01000B1
:101800000090009820200190032002900020039077
:1018100001A9384801F0B4F901200190022002909A
:1018200000200390032004900C20059001A9324869
:1018300001F0A6F94FF40040019002200290002030
:101840000390032004900320059001A92B4801F088
:1018500097F906B010BD10B586B0040001A8142198
:1018600000F0B6F920682649884222D11C48006859
:1018700050F000501A4908601948006810F00050F4
:10188000009000981848006850F001001649086060
:101890001548006810F00100009000982020019089
:1018A000032002900020039001A95FF0904001F016
:1018B00067F906B010BD81B00168124A91420BD1A0
:1018C0000749096851F00201054A11600449096895
:1018D00011F002010091009901B0704760100240C0
:1018E00058100240000004504C10024080170020A5
:1018F00000020140000800480004004800100048B1
:10190000007400400004004010B40100002901D11F
:1019100001206EE00868384B98420AD20868374BBD
:1019200018181423B0FBF3F08000486434480864AE
:1019300009E00868334B18181423B0FBF3F080005B
:10194000486431480864022081F82500086800686E
:1019500002006FF30E128868CB6818430B691843B6
:101960004B6918438B691843CB6918430B6A1843BA
:101970000243086802608868B0F5804F30D0086C78
:101980001F4B984216D1214800680F2391F844401C
:1019900014F01C04A34098431C4B18601B480068BB
:1019A0004B6891F8444014F01C04A3401843174BB3
:1019B000186015E0164800680F2391F8444014F0B1
:1019C0001C04A3409843124B1860114800684B68F0
:1019D00091F8444014F01C04A34018430C4B1860C9
:1019E0000020C863012081F82500002081F8240030
:1019F000002010BC7047000008040240F8FFFDBF43
:101A000000000240F8FBFDBF00040240A8000240B5
:101A1000A80402402DE9F04104000D0016001F004B
:101A20005FF0000894F82400012801D102203BE077
:101A3000012084F8240094F8250001282DD10220EB
:101A400084F825000020E06320680068400840001A
:101A5000216808603B0032002900200000F09FF858
:101A6000206B002806D02068006850F00E00216826
:101A700008600BE02068006830F00400216808600E
:101A80002068006850F00A0021680860206800683B
:101A900050F001002168086004E0002084F8240070
:101AA000022080464046C0B2BDE8F08170B5040017
:101AB000206C056820680668042094F8441011F032
:101AC0001C01884005421AD0700718D520680068AC
:101AD000800605D42068006830F0040021680860A2
:101AE000042094F8441011F01C018840216C4860D7
:101AF000206B002852D02000216B88474EE0022046
:101B000094F8441011F01C018840054220D0B00721
:101B10001ED520680068800608D42068006830F070
:101B20000A0021680860012084F82500022094F84A
:101B3000441011F01C018840216C4860002084F89A
:101B40002400E06A002829D02000E16A884725E0C7
:101B5000082094F8441011F01C01884005421DD063
:101B600030071BD52068006830F00E00216808603F
:101B7000012094F8441011F01C018840216C486049
:101B80000120E063012084F82500002084F824006F
:101B9000606B002802D02000616B884770BD30B4B4
:101BA000012490F8445015F01C05AC40056C6C60A5
:101BB000046863608468102C04D10468A26004681F
:101BC000E16003E00468A1600468E26030BC704733
:101BD000002201F0E7B800002DE9F84304000027D7
:101BE0005FF000082068000534D5606E002812D030
:101BF000B0F5800F15D0B0F5000F03D0B0F5400F51
:101C000016D016E0DFF86404006850F48030DFF886
:101C10005C1408600FE00021201D00F031FA07007D
:101C200009E0002114F1200000F0FAFA070002E0B8
:101C300001E001200700FFB2002F0AD1DFF83004D5
:101C4000006830F44000616E0843DFF82414086037
:101C500000E0B8462068C00434D5A06E002812D039
:101C6000B0F1807F15D0B0F1007F03D0B0F1407F9C
:101C700016D016E0DFF8F403006850F48030DFF887
:101C8000EC1308600FE00021201D00F0F9F90700B7
:101C900009E0002114F1200000F0C2FA070002E080
:101CA00001E001200700FFB2002F0AD1DFF8C003D6
:101CB000006830F04070A16E0843DFF8B41308608C
:101CC00000E0B8462068800340F189805FF0000999
:101CD000DFF8A0030068C00010D4DFF898030068A4
:101CE00050F08050DFF88C130860DFF8880300683C
:101CF00010F080500090009801208146DFF87803B2
:101D0000006850F48070DFF870130860FEF7A6FFDB
:101D10000600DFF864030068C00506D4FEF79EFFE6
:101D2000801B0328F5D303200700FFB2002F48D102
:101D3000DFF84803006810F440700500002D1CD047
:101D4000D4F88400854218D0DFF83003006830F4FE
:101D500040700500DFF82403006850F48030DFF89D
:101D60001C130860DFF81403006830F48030DFF8DB
:101D70000C130860DFF804030560E80710D5FEF7D0
:101D80006DFF0600DFF8F4020068800708D4FEF754
:101D900065FF801B41F289318842F3D3032007009D
:101DA000FFB2002F0BD1DFF8D402006830F440708E
:101DB000D4F884100843DFF8C412086002E0B84683
:101DC00000E0B8465FFA89F9B9F1010F07D1DFF8F1
:101DD000A402006830F08050DFF898120860207884
:101DE000C00709D5DFF88802006880088000A16B71
:101DF0000843DFF87C1208602078800709D5DFF8F7
:101E00007002006830F00C00E16B0843DFF86012EC
:101E100008602078400709D5DFF85402006830F0E8
:101E20003000216C0843DFF8481208602078000772
:101E300009D5DFF83C02006830F0C000616C08434F
:101E4000DFF82C1208602078C00609D5DFF82002E0
:101E5000006830F44070A16C0843DFF81412086089
:101E60002078800609D5DFF80802006830F4406069
:101E7000E16C0843DFF8F81108602068800509D597
:101E8000DFF8EC01006830F44020E16D0843DFF832
:101E9000E01108602068400509D5DFF8D40100682A
:101EA00030F44010216E0843DFF8C4110860207838
:101EB000400609D5DFF8B801006830F44050216DC4
:101EC0000843DFF8AC1108602078000609D5DFF878
:101ED000A001006830F44040616D0843DFF89011C4
:101EE00008602068C00509D5DFF88401006830F477
:101EF0004030A16D0843DFF8781108602068800445
:101F000021D5DFF86C01006830F04060E16E0843D5
:101F1000DFF85C110860E06EB0F1006F06D1534845
:101F2000006850F48010514908600CE0E06EB0F198
:101F3000806F08D10121201D00F0A2F80700FFB238
:101F4000002F00D0B8462068000321D5DFF820011B
:101F5000006830F04060216F0843DFF8141108601A
:101F6000206FB0F1006F06D14048006850F4801037
:101F70003E4908600CE0206FB0F1806F08D101216C
:101F8000201D00F07DF80700FFB2002F00D0B846FA
:101F90002068400321D5DFF8D800006830F04060A9
:101FA000616F0843DFF8C8100860606FB0F1006F20
:101FB00006D12E48006850F480102C4908600CE0CF
:101FC000606FB0F1806F08D10121201D00F058F83A
:101FD0000700FFB2002F00D0B8462068400425D586
:101FE000DFF88C00006830F04050A16F0843DFF844
:101FF00080100860A06FB0F1805F09D10221201D20
:1020000000F03EF80700FFB2002F0FD0B8460DE0F9
:10201000A06FB0F1005F09D1022114F1200000F09F
:10202000FFF80700FFB2002F00D0B8462068000478
:1020300009D5DFF83C00006830F08040E16F0843CC
:10204000DFF82C1008602068C0030AD5DFF82000F4
:10205000006820F00040D4F880100843DFF810102A
:1020600008604046C0B2BDE8F28300000C10024098
:10207000881002405810024000700040901002404A
:10208000F8B504000D000027DFF8EC02006810F03E
:10209000030F16D0DFF8E002006810F0030021689B
:1020A00088420BD12068002808D0DFF8CC020068F5
:1020B000C0F30210401C616888423AD0012007003A
:1020C00037E02068012804D020D3032811D008D39A
:1020D0001CE0DFF8A0020068800701D4012007009F
:1020E00016E0DFF890020068400501D401200700E7
:1020F0000EE0DFF880020068800306D4DFF8740287
:102100000068400301D40120070001E0012007001E
:10211000FFB2002F0DD1DFF86002006830F07300CD
:10212000216808436168491E50EA0110DFF848122F
:102130000860FFB2002F70D1DFF83802006830F07D
:102140008060DFF830120860FEF788FD0600DFF8D7
:1021500024020068000106D5FEF780FD801B0328DD
:10216000F5D303200700FFB2002F56D1002D10D168
:10217000DFF808020068DFF808120840A16850EA9A
:102180000120E168090950EA4140DFF8F0110860D8
:1021900026E0012D12D1DFF8E4010068DFF8E41138
:1021A0000840A16850EA01202169891E0905490DEE
:1021B00049050843DFF8C411086011E0DFF8BC01ED
:1021C0000068DFF8C4110840A16850EA0120616985
:1021D000891E090611F07E410843DFF8A01108604E
:1021E0006448006850F0806062490860FEF736FD80
:1021F000060060480068000106D4FEF72FFD801B32
:102200000328F6D303200700FFB2002F05D15B4857
:102210000068A1690843594908603800C0B2F2BD9E
:10222000F8B504000D0000275348006810F0030FB4
:1022300014D05148006810F00300216888420AD188
:102240002068002807D04C480068C0F30210401CEA
:102250006168884234D00120070031E020680128FD
:1022600004D01CD303280FD007D318E041480068DE
:10227000800701D40120070013E03E4800684005B4
:1022800001D4012007000CE03A480068800305D41F
:1022900038480068400301D40120070001E0012014
:1022A0000700FFB2002F0BD13348006830F07300F5
:1022B000216808436168491E50EA01102E490860F0
:1022C000FFB2002F52D12B48006830F080502949CE
:1022D0000860FEF7C3FC060026480068800006D5AB
:1022E000FEF7BCFC801B0328F6D303200700FFB2D7
:1022F000002F3BD1002D0DD1244800682049084013
:10230000A16850EA0120E168090950EA41401F49EB
:1023100008600EE01D4800681B490840A16850EAAB
:1023200001202169891E090611F07E4108431749E1
:1023300008601048006850F080500E490860FEF7B1
:102340008DFC06000B480068800006D4FEF786FC72
:10235000801B0328F6D303200700FFB2002F05D10E
:102360000A48006861690843084908603800C0B23B
:10237000F2BD0000001002400C100240101002409C
:10238000FF80FDFFFF809FFFFF80FFF914100240D8
:1023900010B5002018280BDA0021DFF8302742F8AA
:1023A00020100021DFF8282742F82010401CF1E718
:1023B0000020102806DA0021DFF8182722F8101074
:1023C000401CF6E70020B0F5806F06DA0021DFF848
:1023D000082742F82010401CF5E70020DFF8FC1623
:1023E00008800020DFF8F81608700020DFF8F416E7
:1023F00008600020DFF8F0160880DFF8F006002102
:1024000001600020DFF8E81608600020DFF8E4161D
:1024100008600020DFF8E01608800020DFF8DC16F6
:1024200008600020DFF8D8160880DFF8D806002101
:102430000160DFF8D406002101600620DFF8CC1629
:10244000087000F0C9FC00F06CF900F0C8FA00F068
:10245000CBF900F083FA00F01AFA00F0F3F900F07B
:10246000F5FA042000F0CAFC002000F0CFFC00F0D8
:10247000D5FC1021DFF8980600F000FDDFF8940687
:10248000038800221021DFF8880600F02EFDDFF817
:10249000880600F0FEFE7F21DFF8800600F075FF61
:1024A000FEF7DCFBDFF878160860FEF7D7FB0400C8
:1024B000DFF86C060068201AFA28C0F0D380DFF835
:1024C00064060068DFF860160860DFF8240600681C
:1024D000DFF8501609680818DFF814160860DFF8EE
:1024E00014060068401CDFF80C160860DFF80006D0
:1024F0000068DFF800160968B0FBF1F000EE100A82
:10250000B8EE400ADFF8E40580ED000ADFF81406B3
:102510000068DFF8C015DFF8C825127821F812002E
:10252000DFF8B005DFF8B815097830F81100DFF8EA
:10253000FC150860DFF8A8050078401CDFF8A0153E
:102540000870DFF89C050078102803DB0020DFF816
:1025500090150870002010280CDADFF8A4150988FF
:10256000DFF8702532F810205118DFF8942511801B
:10257000401CF0E7DFF888050088102190FBF1F09F
:1025800000EE100AB8EEC00ADFF8780580ED000A08
:10259000DFF8700590ED000AF1EE000A20EE200A47
:1025A000DFF88C0580ED000ADFF84005006800F0D8
:1025B000C9FF41EC100B00F0EDFF51EC100B01F0E6
:1025C00069F8DFF844150860DFF84005007800EE90
:1025D000100AB8EE400ADFF83005D0ED000ADFF847
:1025E0000C0590ED001A00EE601ADFF8180590ED6A
:1025F000000AB4EE410AF1EE10FA19D4DFF80C0526
:10260000007800EE100AB8EE400ADFF8FC04D0EDC6
:10261000000ADFF8D80490ED001A00EE201ADFF867
:10262000E40490ED000AB4EE401AF1EE10FA0ED573
:10263000DFF8A8040088401CDFF8A0140880002000
:10264000DFF8AC1408600020DFF8A8140860002050
:10265000DFF8D01408600020DFF8A4140880DFF849
:10266000C0040460DFF8CC04006801287FF41DAFCB
:10267000DFF8C404008801287FF417AF0020DFF8DA
:10268000BC140860002018280CDADFF8B0140968C0
:10269000DFF8382452F820205118DFF8A024116008
:1026A000401CF0E7DFF894040068182190FBF1F07B
:1026B000DFF834140988401ADFF884140860DFF862
:1026C00080040068DFF87C14DFF87C24127821F89D
:1026D0001200DFF874040078401CDFF86C140870F6
:1026E000DFF864040078FF2803D10020DFF85814D5
:1026F0000870DFF8E403DFF84814096850F8210097
:10270000401CDFF8D413DFF83824126841F82200A7
:102710000020DFF8201408600020DFF81C14088077
:10272000C3E600B5B9B005A84421FFF751FA6846E1
:102730001421FFF74DFA16A88821FFF749FA4FF444
:102740000070FEF797FA002801D000F017FA102069
:10275000059001200B9000200C90B0200D900220DD
:102760000F9001201090032011900A201290072052
:102770001390022014900220159005A8FDF704FD87
:10278000002801D000F0FAF90F20009003200190FA
:10279000002002900020039000200490042168464D
:1027A000FEF765F8002801D000F0E8F94FF480400A
:1027B00016905FF0805034900120179003201890FD
:1027C0000A20199007201A9002201B9002201C90CA
:1027D0005FF080701D9016A8FFF7FEF9002801D069
:1027E00000F0CCF939B000BD80B5DFF86003CA490C
:1027F00008605020C84908610020C749C86000200F
:10280000C54988615FF44030C34948610020C2492E
:10281000C8610020C04988600020BF49486011207D
:10282000BD490862BC4800F07BFC002801D000F0E4
:10283000A5F9002200214020FEF7DBFA4020FEF738
:10284000EBFA01BD00B589B068462421FFF7C0F955
:10285000BF48AF490860AE4800F0FAFA002801D03E
:1028600000F08CF9002000900020019000200290E0
:10287000012003900020049010226946A44800F033
:102880004CFB002801D000F079F909B000BD00B57B
:1028900089B006A80021002200230EC00C3868462B
:1028A000AC4991EC060B80EC060BAB489B490860E9
:1028B00000209A4948600020984988600020974984
:1028C000C8600020954908610420944948610020AF
:1028D0009249087601209149487601208F49C861C4
:1028E00000208E4981F8200000208C4988624FF436
:1028F00080608A49C8620020884981F830004FF41E
:102900008050864948630020844981F83800834814
:10291000FEF74AFB002801D000F030F900200690B5
:1029200006A97E4800F07CFD002801D000F026F9C1
:102930008A48009006200190002002907F2003909A
:10294000042004900020059069467448FEF73AFC84
:10295000002801D000F012F909B000BD80B5804810
:10296000006850F001007E4908607D48006810F062
:102970000100009000987B487B49086000207A495C
:10298000886000207849C8608020774908614FF44A
:102990000070754948614FF40060734988612020D8
:1029A0007149C8614FF440506F49086200206E4978
:1029B00048606D48FEF7A8FF002801D000F0DEF85F
:1029C00069485649C8645548674988620022002111
:1029D0000B20FEF70EFA0B20FEF71EFA01BD00B524
:1029E00087B06248006850F00100604908605F48A5
:1029F000006810F00100009000985C48006850F0FA
:102A000002005A4908605948006810F0020000901E
:102A1000009801A81421FFF7DBF8012001900B209A
:102A200002900020039001A95FF0904000F0A8F808
:102A300004200190012002900020039003200490C4
:102A400001A94B4800F09CF807B000BD00B589B063
:102A500003A81421FFF7BCF86846002100220023D8
:102A60000EC00C3843484449086000204249486081
:102A70000020414988600E203F49C86000203E493F
:102A8000086100203C4988613B4800F04BFE00286B
:102A900001D000F073F8002003900020049003A9F7
:102AA000354800F07CFE002801D000F067F82020B7
:102AB00000900020029069462F4800F0ADFF0028EA
:102AC00001D000F05BF809B000BD000074160020D2
:102AD000D4160020F41700201004002068180020ED
:102AE00073180020401800206A18002030180020B9
:102AF0002C180020341800206E1800202818002000
:102B00006C180020381800205C1800207418002071
:102B1000141800200C000020C817002010160020F8
:102B20005818002054180020501800204C1800207D
:102B3000601800203C180020701800204418002065
:102B400048180020101400207218002000020140D4
:102B500000740040043D0008000004502000F01400
:102B60004810024008000240801700204C1002402C
:102B700000040048000400403417002072B6FEE74D
:102B800078B400220D68D540002D00F0F1800D686A
:102B90000126964035402B00002B00F0E7800D7990
:102BA00015F00305012D04D00D7915F00305022D54
:102BB00019D185682C0003251600F6B27600B540C1
:102BC000AC43CD681600F6B27600B5402C43846065
:102BD00045682C0001259540AC434D68C5F30015B0
:102BE00095402C4344600D7915F00305032D0AD15F
:102BF000C56A2C0001259540AC434D68C5F3C0055E
:102C000095402C43C4620D7915F00305032D0ED0B9
:102C1000C5682C0003251600F6B27600B540AC431B
:102C20008D681600F6B27600B5402C43C4600D796D
:102C300015F00305022D16D1D50800EB85052D6A88
:102C40002C000F2512F00706F6B2B600B540AC43D3
:102C50000D6912F00706F6B2B600B5402C43D50850
:102C600000EB85052C6205682C0003251600F6B2E2
:102C70007600B540AC430D7915F003051600F6B2A9
:102C80007600B5402C4304604D6815F4403F6DD08C
:102C9000384D2D6855F00105364E3560354D2D689F
:102CA00015F001050095009D334D960855F8265006
:102CB0002C000F2512F00306F6B2B600B540AC4367
:102CC000B0F1904F01D100251EE02C4DA84201D15A
:102CD000012519E02A4DA84201D1022514E0294D11
:102CE000A84201D103250FE0274DA84201D10425B8
:102CF0000AE0264DA84201D1052505E0244DA84251
:102D000001D1062500E0072512F00306F6B2B60051
:102D1000B5402C43184D960845F826401D4D2D68AA
:102D20002C009C434D68ED0200D51C43194D2C60CE
:102D3000194D2D682C009C434D68AD0200D51C43F5
:102D4000154D2C60154D2D682C009C434D68AD032E
:102D500000D51C43114D2C60114D2D682C009C4357
:102D60004D68ED0300D51C430D4D2C60521C09E746
:102D700071BC704760100240080001400004004828
:102D800000080048000C00480010004800140048EB
:102D900000180048080401400C04014004040140EC
:102DA0000004014000B500BF130096469446103958
:102DB00028BFA0E80C50FAD85FEA417C28BF0CC0BD
:102DC00048BF40F8042BC90728BF20F8022B48BF92
:102DD00000F8012B00BD000010B500240320FEF711
:102DE00002F80F20FDF708FF002802D001200400A0
:102DF00001E0FEF769FC2000C0B210BD134909686C
:102E000031F004010143114A116070470F4909680C
:102E100031F0020101430D4A1160704710B50B48B3
:102E2000006850F0010009490860FDF717FF040031
:102E300006480068000706D4FDF710FF001B0B28AA
:102E4000F6D3032000E0002010BD00003000014058
:102E500010B50400002C01D101200EE020790028DB
:102E600004D1002060712000FEF7F5FC02202071E3
:102E70000020206101202071002010BD10B402004C
:102E80005079012801D102202DE00120507102204B
:102E9000107110680068012311F01004A34018435A
:102EA0001368186000290CD11068006810F03C000D
:102EB000042813D11068406850F00100136858606E
:102EC0000CE01068006810F47010B0F5802F05D188
:102ED0001068406850F002001368586001201071BB
:102EE00000205071002010BC704738B4040000204E
:102EF000009020680090002905D1009812F1080583
:102F00002818009004E0009812F114052818009089
:102F100000980360002032BC70472DE9F84304009C
:102F20000D0016005FF000092869012828680428B0
:102F30006079012801D10220B4E0012060710220F3
:102F40002071286804285AD1FDF788FE8146002E9A
:102F50001CD12068406B000411D5FDF77FFEB0EB5B
:102F600009000228F5D32068406B0004F1D52069E0
:102F700050F00800206103202071032092E001201E
:102F800000F0A8FDA869216808641BE02068406B78
:102F9000002811D5FDF762FEB0EB09000228F5D339
:102FA0002068406B0028F1D5206950F008002061AE
:102FB00003202071032075E0012000F08BFDA8693B
:102FC000216848642068806C40F2FF3116F01002DE
:102FD00091408843E96916F0100291400843216846
:102FE00088642068C06CFF2116F01002914088436D
:102FF000296A16F01002914008432168C8642869C4
:10300000012810D12068806B07001F2016F01001E6
:10301000884087436869804616F0100018FA00F06F
:103020000743206887632068C06B0700072016F0FD
:103030001001884087432868A9680843E968084365
:10304000804616F0100018FA00F007432068C763A6
:10305000206800684FF4804116F0100291408843C8
:103060002168086020680068070040F6FC7016F0D0
:103070001001884087436868804616F0100018FAEF
:1030800000F007432068076020680068C02116F040
:1030900010029140884321680860012020710020BF
:1030A00060710020BDE8F283A14909680143A04A8C
:1030B000116070479E49096881439D4A11607047BD
:1030C0009C49096801439B4A116070479949096806
:1030D0008143984A11607047974909680143964AAD
:1030E00011607047944909688143934A11607047A1
:1030F000924909680143914A116070478F490968F4
:1031000081438E4A116070478D49096801408142B0
:1031100001D1012000E00020704789490860704714
:103120002DE9FC410400002000905FF00008002C15
:1031300002D101208046A8E020680068002802D55E
:1031400001208046A1E094F82500002813D100203A
:1031500084F824000020A0627A48006850F0010042
:10316000784908607748006810F0010001900198E4
:103170002000FEF718FB2068006810F4000007002C
:10318000E06821690843E169084361690843A1696E
:103190000843A16808430500206800686A490840A0
:1031A0002843216808606068B0F5007F06D1674851
:1031B000006850F400706549086005E063480068E5
:1031C00030F400706149086020680068000211D581
:1031D000002F0FD15E4800685E49B0FBF1F0401C43
:1031E0001421484300900098002803D00098401E06
:1031F0000090F8E720685849884202D15FF4001631
:1032000001E05FF4800694F8200010F0030F2FD047
:1032100094F82000C00603D53000FFF75DFF02E000
:103220003000FFF75FFF94F82000800603D53000E0
:10323000FFF75EFF02E03000FFF760FF3000FFF7AE
:103240006CFF94F82000800703D53000FFF738FFAB
:1032500002E03000FFF73AFF94F82000C00703D5E2
:103260003000FFF721FF09E03000FFF723FF05E002
:103270003000FFF72BFF3000FFF71CFF94F825000C
:10328000002802D1012084F825004046C0B2BDE8E4
:10329000F68181B00100002000900020002902D1B9
:1032A0000122100024E00A681268002A02D50122D7
:1032B00010001DE091F82520012A17D10A68126834
:1032C00052F001020B681A60022281F82520204A80
:1032D0001268204BB2FBF3F2521CD2000092009A0B
:1032E000002A05D0009A521E0092F8E70122100031
:1032F000C0B201B0704738B5040020681649884252
:1033000002D15FF4001501E05FF480052800FFF7AB
:10331000FBFE00280BD00D480068800504D55FF443
:10332000C000FFF7FAFE02E02800FFF7F6FE31BD0D
:103330000004014004040140080401400C04014061
:103340001404014060100240037D20FF040201408C
:1033500004000020400D030000020140806810F0CE
:10336000010070478268DFF8B4301A4011F08043E2
:103370001A4352F00042826070478068C00F704765
:103380008068800810F00100704770B582B00400BA
:103390000D000020009094F85000012801D1022077
:1033A0003AE0012084F850002000FEF727F90600DB
:1033B000F6B2002E27D1606D30F4885050F0020034
:1033C000606529002068FFF7CDFF2068FFF7D5FF73
:1033D000002811D00098401C00900098B0F5912F63
:1033E000F3D3606D30F0020050F0100060650020F3
:1033F00084F8500001200FE0606D30F0020050F0C2
:103400000100606503E0606D50F010006065002011
:1034100084F850003000C0B276BD0000C0FFFF3F0E
:103420002DE9F04399B004000D000026286800281B
:1034300094F85000012801D1022074E0012084F8A2
:1034400050000020159000201690206838498842CE
:1034500003D139480090009802E0002000900098C5
:103460000098002808D1606D50F0200060650020B1
:1034700084F85000012056E00098FFF781FF804655
:103480002068FFF77DFF58EA0000002840D1294856
:1034900007002868002822D0B86830F460406968C6
:1034A000084394F8301050EA4130B8602048FFF7E4
:1034B00055FF81462048FFF751FF50EA09091F4890
:1034C000FFF74CFF50EA0900002827D1B8681C49D3
:1034D000084029680843A9680843B8601EE0B86836
:1034E00030F46040B8601248FFF738FF8146124858
:1034F000FFF734FF50EA09091048FFF72FFF50EAA1
:10350000090000280AD1B8680D490840B86005E0F4
:10351000606D50F02000606501200600002084F8F6
:1035200050003000C0B219B0BDE8F08300000000C8
:103530000000045000030450000104500002045035
:10354000E0F0FFFF5FF0FF0C1CEAD05114BF6145B3
:1035500006E0C110400721F0E04101F160517047E1
:1035600079B900F0004100020AD0B0FA80FC00FAFC
:103570000CF001F16051A1EB0C5101EBD0214005A1
:10358000704741020CBF40F4E0016FF000010020E1
:103590007047000051EC100B10B500F003F841EC3F
:1035A000100B10BD40F2FF7C0B0D4DD0634566D271
:1035B00030B421EA035141F4801103F2FD3C5FEA8B
:1035C0005C0C01D300184941890041EA90718000E8
:1035D0004FF440140023E202D50AB1F5100107D4DC
:1035E0006D081DD2091B641900184941491BF7D504
:1035F0006D080AD20919641B00184941491BEFD50F
:103600006D08F7D301E0520817D0C01861419B1A2A
:10361000AC4100184941801AA941F4D452080AD09B
:10362000C01AA1419B186C4100184941801AA94158
:10363000E9D45208F4D15B1C6C4161084FEA3300B5
:1036400001EB0C5130BC704750EA0103FBD030B4A1
:10365000B1FA81F311B9B0FA80F41B190B3BB3F145
:1036600020042FBF00FA04F19940C3F1200420FA8E
:1036700004F438BF21439840D3F101039DE763452B
:10368000E1D011F5801FDED850EA4101DBD0D943EB
:1036900000F034BA4FEAF17CBCF1E04C2CBFBCF531
:1036A000001F11E05FEA4C0C34BFBCF17F5F2EE0DD
:1036B0005FEA9C0C4FEA0C1C4FEA3C0CC10071F114
:1036C00000414CEB50707047C90241EA5051C002B2
:1036D00018BF41F0010141F000414FEA6C50C0F1C8
:1036E0000900212810D240EACC7CCCF1200C11FA40
:1036F0000CF070F10040CCF1200C21FA0CF00CF031
:10370000004C40EB0C0070474FEACC70704749000A
:1037100011F5001F04D84FEACC10FF30C0057047E8
:10372000C817704710B50400002C01D1012035E006
:1037300094F83D00002805D1002084F83C002000CA
:10374000FEF7B9F8022084F83D00211D206800F042
:1037500057F8012084F84800012084F83E00012039
:1037600084F83F00012084F84000012084F84100E3
:10377000012084F84200012084F84300012084F8ED
:103780004400012084F84500012084F8460001200F
:1037900084F84700012084F83D00002010BD38B5B2
:1037A00004000D0094F83C00012801D1022026E01D
:1037B000012084F83C00022084F83D00290020000C
:1037C00000F085F8002807D0012084F83D00002093
:1037D00084F83C00012012E02068C06830F040000E
:1037E0002168C8602068C06830F480402168C860E3
:1037F000012084F83D00002084F83C00002032BD08
:1038000003681A00DFF88031984212D0B0F1804F7F
:103810000FD0DFF8783198420BD0DFF8743198423E
:1038200007D0DFF87031984203D0DFF86C3198424E
:1038300003D132F070024B681A43DFF84C319842E2
:103840001ED0B0F1804F1BD0DFF84031984217D026
:10385000DFF83C31984213D0DFF8383198420FD06E
:10386000DFF8343198420BD0DFF83031984207D07E
:10387000DFF82C31984203D0DFF82831984203D189
:1038800032F44072CB681A4332F080024B691A431B
:1038900002608B68C3620B688362DFF8EC30984289
:1038A0000FD0DFF8F43098420BD0DFF8F0309842B8
:1038B00007D0DFF8EC30984203D0DFF8E8309842C8
:1038C00001D10B69036301234361704700002DE9B7
:1038D000F84304000D00002620688068814639F016
:1038E0007009686850EA09092F4810EA0909286830
:1038F00050EA09092068C0F80890686800283CD0A0
:1039000010283AD0202838D0302836D040280CD083
:10391000502826D060282AD070282FD12B69AA6879
:10392000E968206800F06BF82AE02868052801D1D2
:10393000012027E02068006A80462068006A40086D
:1039400040002168086220688069070037F0F007AE
:10395000286957EA0017206887612068C0F820802E
:103960000EE02A69A968206800F020F808E02A69BA
:10397000A968206800F02EF802E001E001200600AE
:103980003000C0B2BDE8F283002C014000040040CA
:1039900000080040000C004000340140004001409D
:1039A0000044014000480140F8FFFEFF30B4056AC2
:1039B0002C00056A6D086D00056285692B0033F0E7
:1039C000F00353EA021334F00A040C4383610462E7
:1039D00030BC704730B4056A2C00056A35F010051C
:1039E000056285692B0033F4704353EA023334F0E7
:1039F000A00454EA01148361046230BC704730B4FF
:103A000085682C0034F47F4452EA010555EA032509
:103A10002C43846030BC704730B4020092F83C0004
:103A2000012801D1022046E0012082F83C0002205A
:103A300082F83D0010684068030010688068040048
:103A400010681E4DA84203D01068204DA84203D133
:103A500033F470034868034333F07003086803438A
:103A6000106843601068154DA84217D01068B0F177
:103A7000804F13D01068124DA8420FD01068114D1E
:103A8000A8420BD01068104DA84207D010680F4D07
:103A9000A84203D010680E4DA84205D134F080042E
:103AA0008868044310688460012082F83D0000208B
:103AB00082F83C00002030BC70470000002C014020
:103AC0000004004000080040000C004000340140A9
:103AD0000040014070B50400FDF7C0F80500260065
:103AE00016F1010F02D0044800783618FDF7B6F839
:103AF000401BB042FAD370BD0E0000201FB500F08D
:103B000003F8212101601FBD014800F003B8000047
:103B10000800002070470000184908607047FEE761
:103B2000FEE7FEE7FEE7FEE770477047704780B5A7
:103B300000F034F801BD80B51148FDF7B7FF012052
:103B40001049088001BD80B50F480068401C0E492F
:103B500008600E480088002807D118220C490D483B
:103B6000FDF78CFD0120094908805FF40010FFF784
:103B7000D3FF0948FFF7BFFB01BD0000140401405B
:103B80008017002070180020541800203C180020D6
:103B90007416002010160020C81700200348006883
:103BA00003490978401801490860704764180020EB
:103BB0000E00002019E050F8041BCB0744BFA9F108
:103BC00001035918121F0023042A41F8043BF9D2BB
:103BD0005FEA827C0B4604D54FF0000CA1F800C0D0
:103BE0009B1CD10744BF0021197050F8042B002AF8
:103BF000E1D17047A0860100400D0300801A060045
:103C000000350C0040420F0080841E0000093D007A
:103C100000127A000024F40000366E010048E8012A
:103C2000006CDC0210B450F8041B79B102684368E0
:103C300002440830DC0744BFA9F10104E31852F83C
:103C4000044B43F8044B091FF9D1ECE710BC704753
:103C500010B5074979441831064C7C44163404E009
:103C60000A68081D114488470146A142F8D110BDD9
:103C70002C0000004C0000004EF68851CEF20001EE
:103C8000086840F470000860BFF34F8FBFF36F8F78
:103C90004FF00070E1EE100A7047000019FFFFFFBF
:103CA00068140000100400200000000079FFFFFFEE
:103CB000100000009C000000000000200000000038
:103CC00000F00BF8002801D0FFF7C2FF0020AFF38F
:103CD0000080FEF75DFB00F002F80120704700F065
:103CE00001B800000746384600F002F8FBE7000084
:103CF00080B5AFF30080024A11001820ABBEFBE78D
:103D0000260002000000000000000000000000008B
:103D100000000000000000000000000003480068F0
:103D200050F47000014908607047000088ED00E021
:103D3000000000000000000001020304060708095B
:103D400001488047014800471D3D0008613D0008CB
:103D50001000000000093D00000000002C010100DF
:103D6000AFF30080FFF788FFFFF7AAFFFFF7FEBF62
:103D7000FFF7FEBFFFF7FEBFFFF7FEBFFFF7FEBF77
:103D8000FFF7FEBFFFF7FEBFFFF7FEBFFFF7FEBF67
:103D9000FFF7FEBFFFF7FEBFFFF7FEBFFFF7FEBF57
:103DA000FFF7FEBFFFF7FEBFFFF7FEBFFFF7FEBF47
:103DB000FFF7FEBFFFF7FEBFFFF7FEBFFFF7FEBF37
:103DC000FFF7FEBFFFF7FEBFFFF7FEBFFFF7FEBF27
:103DD000FFF7FEBFFFF7FEBFFFF7FEBFFFF7FEBF17
:103DE000FFF7FEBFFFF7FEBFFFF7FEBFFFF7FEBF07
:103DF000FFF7FEBFFFF7FEBFFFF7FEBFFFF7FEBFF7
:103E0000FFF7FEBFFFF7FEBFFFF7FEBFFFF7FEBFE6
:103E1000FFF7FEBFFFF7FEBFFFF7FEBFFFF7FEBFD6
:103E2000FFF7FEBFFFF7FEBFFFF7FEBFFFF7FEBFC6
:103E3000FFF7FEBFFFF7FEBFFFF7FEBFFFF7FEBFB6
:103E4000FFF7FEBFFFF7FEBFFFF7FEBFFFF7FEBFA6
:103E5000FFF7FEBFFFF7FEBFFFF7FEBFFFF7FEBF96
:103E6000FFF7FEBFFFF7FEBFFFF7FEBFFFF7FEBF86
:103E7000FFF7FEBFFFF7FEBFFFF7FEBFFFF7FEBF76
:103E8000FFF7FEBFFFF7FEBFFFF7FEBFFFF7FEBF66
:103E9000FFF7FEBFFFF7FEBFFFF7FEBFFFF7FEBF56
:083EA000FFF7FEBFFFF7FEBFB4
:0400000508003D6151
:00000001FF
